:100000000C945E000C9486000C9486000C946A0399
:100010000C946A030C946A030C9486000C9486007A
:100020000C9486000C9486000C9486000C94860038
:100030000C9486000C9486000C9486000C94860028
:100040000C9420030C9486000C94EE020C94C802CD
:100050000C9486000C9486000C9486000C94860008
:100060000C9486000C9486000000000024002700F9
:100070002A0000000000250028002B0004040404CE
:100080000404040402020202020203030303030342
:10009000010204081020408001020408102001021F
:1000A00004081020000000080002010000030407FB
:1000B00000000000000000007403C70711241FBEE9
:1000C000CFEFD8E0DEBFCDBF21E0A8E2B1E001C0B4
:1000D0001D92AE3FB207E1F711E0A0E0B1E0E6E625
:1000E000F9E102C005900D92A832B107D9F710E0EE
:1000F000CDE5D0E004C02197FE010E94AE0ACC35C8
:10010000D107C9F70E94FB030C94A60C0C940000C5
:10011000AF92BF92CF92DF92EF92FF920F931F9315
:10012000CF93DF936C017B018B01040F151FEB0153
:100130005E01AE18BF08C017D10759F06991D6010A
:10014000ED91FC910190F081E02DC6010995892B7C
:1001500079F7C501DF91CF911F910F91FF90EF903B
:10016000DF90CF90BF90AF900895FC01538D448DE8
:10017000252F30E0842F90E0821B930B541710F052
:10018000CF96089501970895FC01918D828D98175F
:1001900061F0A28DAE0FBF2FB11D5D968C91928D37
:1001A0009F5F9F73928F90E008958FEF9FEF089568
:1001B000FC01918D828D981731F0828DE80FF11D31
:1001C000858D90E008958FEF9FEF08952FB7F894F5
:1001D0008091530190915401A0915501B091560125
:1001E0002FBF80935F0190936001A0936101B09352
:1001F000620187E591E00E94D80097FF26C02FB7E3
:10020000F8948091530190915401A0915501B091BF
:1002100056012FBF40915F015091600160916101D3
:1002200070916201841B950BA60BB70B40915B018B
:1002300050915C0160915D0170915E01841795079A
:10024000A607B707B0F28FEF9FEF0895FC01918DDD
:10025000228D892F90E0805C9F4F821B91098F73C4
:100260009927089587E591E00E94260121E0892BD6
:1002700009F420E0822F089580E090E0892B29F096
:100280000E94320181110C9400000895FC01A48D9C
:10029000A80FB92FB11DA35ABF4F2C91848D90E0A8
:1002A00001968F739927848FA689B7892C93A0898B
:1002B000B1898C91837080648C93938D848D981315
:1002C00006C00288F389E02D80818F7D80830895A8
:1002D000EF92FF920F931F93CF93DF93EC0181E096
:1002E000888F9B8D8C8D98131AC0E889F98980813D
:1002F00085FF15C09FB7F894EE89FF896083E88970
:10030000F98980818370806480839FBF81E090E061
:10031000DF91CF911F910F91FF90EF900895F62EEE
:100320000B8D10E00F5F1F4F0F731127E02E8C8D88
:100330008E110CC00FB607FCFACFE889F9898081CD
:1003400085FFF5CFCE010E944601F1CFEB8DEC0F7A
:10035000FD2FF11DE35AFF4FF0829FB7F8940B8FEA
:10036000EA89FB8980818062CFCFCF93DF93EC0154
:10037000888D8823B9F0AA89BB89E889F9898C918D
:1003800085FD03C0808186FD0DC00FB607FCF7CF49
:100390008C9185FFF2CF808185FFEDCFCE010E9449
:1003A0004601E9CFDF91CF91089590E0FC01EC5533
:1003B000FF4F2491FC01E057FF4F3491FC01E458BA
:1003C000FF4FE491EE23C9F0222339F0233001F1ED
:1003D000A8F4213019F1223029F1F0E0EE0FFF1FCF
:1003E000EE58FF4FA591B4918FB7F894EC9161113D
:1003F00026C030953E233C938FBF08952730A9F047
:100400002830C9F0243049F7809180008F7D03C0E7
:10041000809180008F7780938000DFCF84B58F77C5
:1004200084BDDBCF84B58F7DFBCF8091B0008F770B
:100430008093B000D2CF8091B0008F7DF9CF3E2B5A
:10044000DACFCF93DF9390E0FC01E057FF4F249188
:1004500084589F4FFC0184918823D1F090E0880F4D
:10046000991FFC01E859FF4FA591B491FC01EE588A
:10047000FF4FC591D49161110EC09FB7F8948C9134
:10048000E22FE0958E238C932881E223E8839FBF9F
:10049000DF91CF9108958FB7F894EC91E22BEC9314
:1004A0008FBFF6CF3FB7F89480912B0190912C012C
:1004B000A0912D01B0912E0126B5A89B05C02F3F1C
:1004C00019F00196A11DB11D3FBFBA2FA92F982F7A
:1004D0008827BC01CD01620F711D811D911D42E075
:1004E000660F771F881F991F4A95D1F70895FC0161
:1004F00001900020E9F73197AF01481B590BBC016F
:1005000087E591E00C9488008F929F92AF92BF9202
:100510000F931F93CF93DF93CDB7DEB7A1970FB69D
:10052000F894DEBF0FBECDBF19A2423008F44AE0F6
:100530008E010F5D1F4F842E912CB12CA12CA50193
:1005400094010E94780AE62FB901CA01EA30F4F456
:10055000E05DD801EE938D01232B242B252B79F719
:1005600090E080E0109719F0CD010E947702A196EB
:100570000FB6F894DEBF0FBECDBFDF91CF911F91B4
:100580000F91BF90AF909F908F900895E95CE1CF5D
:100590001F920F920FB60F9211242F933F934F93F8
:1005A0005F936F937F938F939F93AF93BF93EF93DB
:1005B000FF9387E591E00E944601FF91EF91BF9183
:1005C000AF919F918F917F916F915F914F913F91EB
:1005D0002F910F900FBE0F901F9018951F920F92A2
:1005E0000FB60F9211242F938F939F93EF93FF9346
:1005F000E0916701F09168018081E0916D01F091D7
:100600006E0182FD1BC09081809170018F5F8F739E
:1006100020917101821741F0E0917001F0E0E95AF8
:10062000FE4F958F80937001FF91EF919F918F9175
:100630002F910F900FBE0F901F9018958081F4CFCF
:100640001F920F920FB60F9211242F933F938F9307
:100650009F93AF93BF938091530190915401A091C8
:100660005501B091560130912A0123E0230F2D3717
:1006700058F50196A11DB11D20932A0180935301C5
:1006800090935401A0935501B093560180912B0192
:1006900090912C01A0912D01B0912E010196A11DE8
:1006A000B11D80932B0190932C01A0932D01B09349
:1006B0002E01BF91AF919F918F913F912F910F90FC
:1006C0000FBE0F901F90189526E8230F0296A11DCC
:1006D000B11DD2CF1F920F920FB60F9211240F901F
:1006E0000FBE0F901F90189510925A011092590149
:1006F00088EE93E0A0E0B0E080935B0190935C0112
:10070000A0935D01B0935E018AE091E0909358015F
:100710008093570185EC90E090936401809363018E
:1007200084EC90E0909366018093650180EC90E00A
:10073000909368018093670181EC90E090936A0147
:100740008093690182EC90E090936C0180936B013F
:1007500086EC90E090936E0180936D011092700191
:100760001092710110927201109273011092F501B2
:100770001092F4011092F7011092F6011092F90113
:100780001092F80161E070E090E080E00E94D90BE7
:100790000097E1F09093F5018093F4011092F70136
:1007A0001092F6012091F8013091F901232B11F4F8
:1007B000FC0110821092F9011092F80166E271E0DA
:1007C0008091F4019091F5010C949F0C8091F401BB
:1007D0009091F501009711F00E94500B1092F501D5
:1007E0001092F4011092F9011092F8011092F701A1
:1007F0001092F6010895CF93DF9300D000D0CDB7CB
:10080000DEB7789484B5826084BD84B5816084BD90
:1008100085B5826085BD85B5816085BD80916E009E
:10082000816080936E0010928100809181008260CF
:10083000809381008091810081608093810080910C
:1008400080008160809380008091B10084608093FB
:10085000B1008091B00081608093B00080917A00F7
:10086000846080937A0080917A00826080937A001D
:1008700080917A00816080937A0080917A0080680C
:1008800080937A001092C100E0916701F0916801B5
:1008900082E08083E0916301F09164011082E09135
:1008A0006501F09166018FEC808310926F01E091F9
:1008B0006B01F0916C0186E08083E0916901F09119
:1008C0006A01808180618083E0916901F0916A0111
:1008D000808188608083E0916901F0916A01808164
:1008E00080688083E0916901F0916A0180818F7D49
:1008F000808360E08EE00E94210261E083E00E943C
:10090000210260E080E00E9421028091B1008760B6
:100910008093B1002AE0222E312C10E487E591E08B
:100920000E942601181619060CF08BC00E94E600E2
:10093000FC0197FD29C28D32910509F04CC0412C74
:10094000512C90E8692E9FE3792EC12CD12C760191
:1009500000E0B12CE130F10559F1ED32F10509F477
:1009600047C0EE32F10509F446C0CF01C0970A979F
:10097000F8F4AAE0B0E0A70196010E94F4086F0124
:10098000FF0FEE08FF08C60ED71EE81EF91E20E373
:10099000C21AD108E108F108002351F02DEC3CEC1B
:1009A0004CEC5DE3C301B2010E9436082B013C010F
:1009B00087E591E00E94C4000E94E600FC01C09718
:1009C0000A9740F2EE32F105C1F4002319F20B2D23
:1009D000B11019C026C0C0970A9708F4B0CFEE3204
:1009E000F10509F4ACCF87E591E00E94C4009ECFE9
:1009F000BB24B394DDCF01E0DBCFE130F10509F496
:100A0000A9CFBB2041F0F094E094D094C094C11CD5
:100A1000D11CE11CF11CC701B6010E94D7070023BD
:100A200041F0C701B6010E94D707A30192010E94BD
:100A3000360860934F017093500180935101909359
:100A400052018FB7F8944091530150915401609135
:100A50005501709156018FBF80914B0190914C01CF
:100A6000A0914D01B0914E01481B590B6A0B7B0BB5
:100A7000443651056105710508F479C18C599F4FC1
:100A8000AF4FBF4F80934B0190934C01A0934D010A
:100A9000B0934E0110937C0080917A008064809323
:100AA0007A0080917A0086FDFCCF80917800609179
:100AB0007900762F682F072E000C880B990B0E9467
:100AC000D70726E636E648E851E40E94B2099B01C2
:100AD000AC01209347013093480140934901509362
:100AE0004A0160914F0170915001809151019091A4
:100AF00052010E9445096093430170934401809321
:100B000045019093460180913F0190914001A09151
:100B10004101B091420180933B0190933C01A0932D
:100B20003D01B0933E012FB7F8946091530170914D
:100B3000540180915501909156012FBF0E94D50715
:100B400060933F0170934001809341019093420173
:100B500020913B0130913C0140913D0150913E017B
:100B60000E94450920E030E04AE754E40E94B209BF
:100B700069837A838B839C83C0904301D090440126
:100B8000E0904501F0904601809037019090380147
:100B9000A0903901B0903A01A5019401C701B601B6
:100BA0000E94460929813A814B815C810E94360866
:100BB00020E030E040E05FE30E94360820913301FE
:100BC0003091340140913501509136010E9446091F
:100BD0002B013C0120E030E04AE754E40E945A0A2D
:100BE00087FFD6C0409233015092340160923501A4
:100BF0007092360120E030E04AE754EC6091330116
:100C00007091340180913501909136010E94D00796
:100C1000181664F080E090E0AAE7B4EC809333010A
:100C200090933401A0933501B093360120E030E079
:100C300049E353E4C701B6010E943608209133010D
:100C40003091340140913501509136010E9446099E
:100C50002B013C01A5019401C701B6010E94450981
:100C600029813A814B815C810E94B2099B01AC01D0
:100C7000C301B2010E9446096B017C0120E030E013
:100C80004FE753E40E945A0A87FD8FC08FEF90E030
:100C90009093320180933101E0903101F090320164
:100CA00061E083E00E942102E114F10409F094C0A4
:100CB00060E083E00E94D50180914301909144015E
:100CC000A0914501B091460180933701909338017E
:100CD000A0933901B0933A010E9452024B015C018A
:100CE00084E6C82ED12CE12CF12C0E945202681906
:100CF00079098A099B09683E734081059105A8F32B
:100D000021E0C21AD108E108F10888EE880E83E0DC
:100D1000981EA11CB11CC114D104E104F10429F7EF
:100D200080912F0190913001019690933001809332
:100D30002F01B1010E94640A892BC9F4C0904701B8
:100D4000D0904801E0904901F0904A01A701960136
:100D5000C701B6010E945F0A882309F486C088E1B2
:100D600091E00E94770284E291E00E94770280E0A5
:100D700090E0892B09F4D2CD0E943201882309F436
:100D8000CCCD0E940000C9CD60E070E0CB0151CE17
:100D900080E090E0AAE7B4E48093330190933401BB
:100DA000A0933501B093360125CF20E030E0A901B2
:100DB000C701B6010E94D00718162CF0109232011C
:100DC0001092310169CFC701B6010E94240A7093C5
:100DD00032016093310160CF9FEFE916F10411F405
:100DE00061E067CFE7EAF0E08491833021F148F4D5
:100DF0008130B9F08230D1F0F0E8EF16F10484F7D9
:100E000057CF873011F1883041F18430A9F78091B4
:100E10008000806280938000F0928B00E0928A00D4
:100E20004BCF84B5806884BDE7BC46CF84B5806273
:100E300084BDE8BC41CF80918000806880938000B1
:100E4000F0928900E092880037CF8091B0008068EE
:100E50008093B000E092B3002FCF8091B000806209
:100E60008093B000E092B40027CF46015701E89488
:100E7000B7F82FEF3FEF4FE75FE7C501B4010E94DE
:100E80005F0A81110DC02FEF3FEF4FE75FE7C5010C
:100E9000B4010E94D00718161CF48CE191E061CFD8
:100EA0002FEF3FEF4FE75FE4C701B6010E945A0AF8
:100EB00018161CF480E291E054CF2FEF3FEF4FE77C
:100EC0005FECC701B6010E94D00787FDF3CF20E099
:100ED00030E0A901C701B6010E94D00787FF09C011
:100EE0006DE287E591E00E946801F7FAF094F7F867
:100EF000F0942AE037ED43EA5BE3C701B6010E94B4
:100F000046094B015C010E942B0A6B017C010E9487
:100F1000D5079B01AC01C501B4010E9445094B01F5
:100F20005C014AE0C701B6010E9484026EE287E5D7
:100F300091E00E94680120E030E040E251E4C50108
:100F4000B4010E9436084B015C010E942B0A6B0120
:100F5000F12CE12C4AE0C701B6010E948402C701CE
:100F6000B6010E94D5079B01AC01C501B4010E94E6
:100F7000450920E030E040E251E40E9436080E943A
:100F80002B0A90E080E04AE00E948402ECCE80913F
:100F9000F4019091F501009711F00C94500B089515
:100FA0000E94120808F481E00895E89409C097FBB4
:100FB0003EF490958095709561957F4F8F4F9F4F30
:100FC0009923A9F0F92F96E9BB279395F695879574
:100FD00077956795B795F111F8CFFAF4BB0F11F437
:100FE00060FF1BC06F5F7F4F8F4F9F4F16C08823DE
:100FF00011F096E911C0772321F09EE8872F762F14
:1010000005C0662371F096E8862F70E060E02AF054
:101010009A95660F771F881FDAF7880F9695879540
:1010200097F90895990F0008550FAA0BE0E8FEEF15
:1010300016161706E807F907C0F012161306E4079C
:10104000F50798F0621B730B840B950B39F40A2695
:1010500061F0232B242B252B21F408950A2609F473
:10106000A140A6958FEF811D811D08950E9449081A
:101070000C94BA080E94AC0838F00E94B30820F023
:10108000952311F00C94A3080C94A90811240C9436
:10109000EE080E94CB0870F3959FC1F3950F50E0C6
:1010A000551F629FF001729FBB27F00DB11D639F1A
:1010B000AA27F00DB11DAA1F649F6627B00DA11DC0
:1010C000661F829F2227B00DA11D621F739FB00D66
:1010D000A11D621F839FA00D611D221F749F3327D6
:1010E000A00D611D231F849F600D211D822F762F6F
:1010F0006A2F11249F5750409AF0F1F088234AF04C
:10110000EE0FFF1FBB1F661F771F881F91505040B7
:10111000A9F79E3F510580F00C94A3080C94EE08AB
:101120005F3FE4F3983ED4F3869577956795B7953E
:10113000F795E7959F5FC1F7FE2B880F911D969558
:10114000879597F9089597F99F6780E870E060E0C8
:1011500008959FEF80EC089500240A941616170650
:1011600018060906089500240A9412161306140698
:1011700005060895092E0394000C11F4882352F0FB
:10118000BB0F40F4BF2B11F460FF04C06F5F7F4FB3
:101190008F4F9F4F089557FD9058440F551F59F09A
:1011A0005F3F71F04795880F97FB991F61F09F3F54
:1011B00079F087950895121613061406551FF2CF7D
:1011C0004695F1DF08C0161617061806991FF1CFCD
:1011D00086957105610508940895E894BB276627F4
:1011E0007727CB0197F908950E943609A59F900DA6
:1011F000B49F900DA49F800D911D112408952F92EE
:101200003F924F925F926F927F928F929F92AF9296
:10121000BF92CF92DF92EF92FF920F931F93CF93E3
:10122000DF93CDB7DEB7CA1BDB0B0FB6F894DEBF7A
:101230000FBECDBF09942A88398848885F846E84A0
:101240007D848C849B84AA84B984C884DF80EE80EA
:10125000FD800C811B81AA81B981CE0FD11D0FB6F3
:10126000F894DEBF0FBECDBFED010895A29FB0017F
:10127000B39FC001A39F700D811D1124911DB29FCA
:10128000700D811D1124911D08955058BB27AA2768
:101290000E945D090C94BA080E94AC0838F00E94C4
:1012A000B30820F039F49F3F19F426F40C94A908F0
:1012B0000EF4E095E7FB0C94A308E92F0E94CB08FD
:1012C00058F3BA17620773078407950720F079F47B
:1012D000A6F50C94ED080EF4E0950B2EBA2FA02D78
:1012E0000B01B90190010C01CA01A0011124FF27D3
:1012F000591B99F0593F50F4503E68F11A16F040CE
:10130000A22F232F342F4427585FF3CF46953795CC
:101310002795A795F0405395C9F77EF41F16BA0B91
:10132000620B730B840BBAF09150A1F0FF0FBB1F3F
:10133000661F771F881FC2F70EC0BA0F621F731F88
:10134000841F48F4879577956795B795F7959E3FE5
:1013500008F0B0CF9395880F08F09927EE0F979576
:10136000879508950E94C6090C94BA080E94B30894
:1013700058F00E94AC0840F029F45F3F29F00C942B
:10138000A30851110C94EE080C94A9080E94CB08F4
:1013900068F39923B1F3552391F3951B550BBB27A4
:1013A000AA2762177307840738F09F5F5F4F220FE9
:1013B000331F441FAA1FA9F335D00E2E3AF0E0E8E0
:1013C00032D091505040E695001CCAF72BD0FE2F2A
:1013D00029D0660F771F881FBB1F261737074807BE
:1013E000AB07B0E809F0BB0B802DBF01FF27935876
:1013F0005F4F3AF09E3F510578F00C94A3080C948F
:10140000EE085F3FE4F3983ED4F3869577956795B1
:10141000B795F7959F5FC9F7880F911D96958795AA
:1014200097F90895E1E0660F771F881FBB1F6217C9
:1014300073078407BA0720F0621B730B840BBA0B87
:10144000EE1F88F7E09508950E942B0A6894B11169
:101450000C94EE0808950E94D30888F09F5798F0E6
:10146000B92F9927B751B0F0E1F0660F771F881FA9
:10147000991F1AF0BA95C9F714C0B13091F00E94C3
:10148000ED08B1E008950C94ED08672F782F8827B8
:10149000B85F39F0B93FCCF3869577956795B395EA
:1014A000D9F73EF490958095709561957F4F8F4F59
:1014B0009F4F08950E94120808F48FEF08950E942C
:1014C0001208880B990B089597FB072E16F40094C9
:1014D00007D077FD09D00E949A0A07FC05D03EF498
:1014E000909581959F4F0895709561957F4F0895D0
:1014F000A1E21A2EAA1BBB1BFD010DC0AA1FBB1F18
:10150000EE1FFF1FA217B307E407F50720F0A21B89
:10151000B30BE40BF50B661F771F881F991F1A94F6
:1015200069F760957095809590959B01AC01BD0120
:10153000CF010895AA1BBB1B51E107C0AA1FBB1F07
:10154000A617B70710F0A61BB70B881F991F5A954F
:10155000A9F780959095BC01CD010895EE0FFF1F6E
:101560000590F491E02D09940F931F93CF93DF938F
:101570008230910510F482E090E0E091FC01F0915E
:10158000FD0130E020E0B0E0A0E0309799F42115B3
:10159000310509F44AC0281B390B24303105D8F530
:1015A0008A819B816115710589F1FB019383828397
:1015B000FE0111C0408151810281138148175907F2
:1015C000E0F04817590799F4109761F012960C93C0
:1015D000129713961C933296CF01DF91CF911F91F2
:1015E0000F9108950093FC011093FD01F4CF211594
:1015F000310551F04217530738F0A901DB019A0178
:10160000BD01DF01F801C1CFEF01F9CF9093FD01DA
:101610008093FC01CDCFFE01E20FF31F81939193E4
:101620002250310939832883D7CF2091FA01309194
:10163000FB01232B41F420910201309103013093EF
:10164000FB012093FA012091000130910101211545
:10165000310541F42DB73EB7409104015091050189
:10166000241B350BE091FA01F091FB01E217F3071F
:10167000A0F42E1B3F0B2817390778F0AC014E5F02
:101680005F4F2417350748F04E0F5F1F5093FB0143
:101690004093FA01819391939FCFF0E0E0E09CCFDB
:1016A000CF93DF930097E9F0FC0132971382128207
:1016B000A091FC01B091FD01ED0130E020E0109718
:1016C000A1F420813181820F931F2091FA01309182
:1016D000FB012817390709F061C0F093FB01E09383
:1016E000FA01DF91CF910895EA01CE17DF07E8F5FF
:1016F0004A815B819E0141155105B1F7E901FB83E8
:10170000EA8349915991C40FD51FEC17FD0761F485
:10171000808191810296840F951FE90199838883C6
:10172000828193819B838A83F0E0E0E012968D9121
:101730009C9113970097B9F52D913C911197CD018C
:101740000296820F931F2091FA013091FB01281716
:10175000390739F6309751F51092FD011092FC01CE
:10176000B093FB01A093FA01BCCFD383C283408125
:101770005181840F951FC817D90761F44E5F5F4FE1
:1017800088819981480F591F518340838A819B81A9
:10179000938382832115310509F0B0CFF093FD01C9
:1017A000E093FC019ECFFD01DC01C0CF13821282C9
:1017B000D7CFB0E0A0E0EFEDFBE00C9401098C0185
:1017C000009751F4CB010E94B40A8C01C801CDB737
:1017D000DEB7E0E10C941D09FC01E60FF71F9C0148
:1017E00022503109E217F30708F49DC0D901CD91C9
:1017F000DC911197C617D70798F0C530D10530F3A3
:10180000CE0104978617970708F3C61BD70B2297BC
:10181000C193D1936D937C93CF010E94500BD6CF8F
:101820005B01AC1ABD0A4C018C0E9D1EA091FC01FF
:10183000B091FD01512C412CF12CE12C109731F588
:101840008091FA019091FB018815990509F05CC01F
:101850004616570608F058C080910001909101018A
:10186000009741F48DB79EB7409104015091050156
:10187000841B950BE817F90708F055C0F093FB019E
:10188000E093FA01F90171836083A0CF8D919C915F
:10189000119712966C90129713967C901397A81537
:1018A000B90559F56C0142E0C40ED11CCA14DB0421
:1018B00020F1AC014A195B09DA011296159780F004
:1018C0006282738251834083D9016D937C93E114CA
:1018D000F10471F0D7011396FC93EE93129776CF33
:1018E00022968C0F9D1FF90191838083F301EFCF26
:1018F000F093FD01E093FC0169CF4816590608F406
:101900002C017D01D3019ACFCB010E94B40A7C0146
:10191000009749F0AE01B8010E94960CC8010E94E0
:10192000500B870153CF10E000E050CFFB01DC01EA
:1019300002C001900D9241505040D8F70895FB012C
:10194000DC0101900D920020E1F7089510E0CDE553
:10195000D0E004C0FE010E94AE0A2196CE35D10728
:06196000C9F7F894FFCF67
:101966000000FE0180000000000068018800B5004C
:10197600B5012601C400D8006E616E00696E66006E
:081986006F7666000D0A0000F7
:00000001FF
